:020000040800F2
:1000000000100020410500088D2900088D290008F6
:100010008D2900088D2900088D2900088D290008E8
:100020008D2900088D2900088D2900088D290008D8
:100030008D2900088D2900088D2900088D290008C8
:100040008D2900088D2900088D2900088D290008B8
:100050008D2900088D2900088D2900088D290008A8
:100060008D2900088D2900088D2900088D29000898
:100070008D2900088D2900088D290008F502000847
:100080008D2900088D2900088D2900088D29000878
:100090008D2900088D2900088D2900088D29000868
:1000A0008D2900088D2900088D2900088D29000858
:1000B0008D2900088D2900088D2900088D29000848
:1000C0008D2900088D2900088D2900088D29000838
:1000D0008D2900088D2900088D2900088D29000828
:1000E0008D2900088D2900088D2900088D29000818
:1000F0008D2900088D2900088D2900088D29000808
:100100008D2900088D2900088D2900088D290008F7
:100110008D2900088D2900088D2900088D290008E7
:100120008D2900088D2900088D2900088D290008D7
:100130008D2900088D2900088D2900088D290008C7
:100140008D2900088D2900088D2900088D290008B7
:100150008D2900088D2900088D2900088D290008A7
:100160008D2900088D2900088D2900088D29000897
:100170008D2900088D2900088D2900088D29000887
:100180008D2900088D2900088D2900088D29000877
:100190008D2900088D2900088D2900088D29000867
:1001A0008D2900088D2900080000000000000000D3
:1001B000013800D0FCE7704710B5054C237833B9FF
:1001C000044B13B1044800E000BF0123237010BDAD
:1001D000BC10002000000000142D000808B5034BDF
:1001E0001BB10349034800E000BF08BD0000000048
:1001F000C0100020142D0008A3F5803A704700BFFE
:10020000174B002B08BF134B9D46FFF7F5FF00214E
:100210008B460F461348144A121A02F052FC0E4B3A
:10022000002B00D098470D4B002B00D098470020A2
:10023000002104000D000D48002802D00C4800E009
:1002400000BF02F005FB2000290002F04AFB02F08B
:10025000EBFA00BF000008000000000000000000F2
:1002600000100020BC100020381100200000000009
:100270000000000010B588B005234FF416528DF829
:1002800000300023CDE901324FF4007203924FF4A5
:100290008052ADF810204FF080428DF81830059252
:1002A0000793104A104B114CC3F8CC230222C3F819
:1002B000C42314226946C3F8B423204601F066FF24
:1002C0004FF400420A4BC3F880211A604FF4803289
:1002D000C3F880211A60042304F58054236508B014
:1002E00010BD00BF0200010000C0035000000A5012
:1002F00000E100E00A4B0B49DA6B0B48D2B20B6805
:100300000D2AC25407D04F2B05D801330B600422AD
:10031000064BDA6470470122054B1A70F7E700BFFD
:1003200000000A50D8100020DC10002000200A50E5
:100330002C110020034A13781BB100231370024ACA
:10034000136070472C110020D810002010B5274CE6
:1003500001F0EAF802F04AFB236F23F0070343F0B1
:100360000303236702F049FB214B00209B6ADB015A
:100370005EBF4FF480321F4B9A62D4F8203123F0D5
:10038000070343F00203C4F82031D4F8283123F0E6
:10039000070343F00203C4F82831D4F8403123F0B6
:1003A000030343F00203C4F84031D4F8603123F072
:1003B000030343F00203C4F86031D4F8403223F061
:1003C000030343F00203C4F84032D4F8003223F0B0
:1003D000070343F00203C4F80032D4F8083223F0D4
:1003E000070343F00203C4F8083210BD0080005038
:1003F0000040005A0060005A0822024BC3F8A020B7
:10040000704700BF00D003500822024BC3F8A02061
:10041000704700BF00E0035070B58EB0444C01AD92
:1004200026460FCE0FC5336814342B6006AD0FCCB3
:100430000FC594E80F0085E80F0001213A2000F075
:1004400011FD0121572000F00DFD4FF48073394E4E
:10045000ADF81C30384B3046039301A906AB059329
:1004600001F0CEFE012304220021022002F060F8F8
:10047000012200231146022002F05AF80221012332
:100480000846042202F054F804220321012302202A
:1004900002F04EF84FF00213284C0225C4F8C8337E
:1004A000A3F58033C4F8C4331C23C4F8CC534FF4F1
:1004B0004870C4F8B43302F08BF91420FFF7A4FF9E
:1004C00002F086F92320FFF797FF02F081F9B921A6
:1004D0003046FFF799FF02F0C0FAFFF78DFF0023C7
:1004E00028461A46194602F023F8002328461A46E1
:1004F000012102F01DF8294628460123002202F0BE
:1005000017F8012300220321284602F011F8304693
:1005100001F004FB00215720C4F8C813C4F8C41329
:10052000C4F8CC13C4F8B41300F09CFC0EB070BD3A
:10053000EC2A000800000A50E070720000C003506E
:1005400008B500F02DF8124B12498B4212D300204F
:10055000114B12498B4218D3FFF752FE186850F81E
:100560002240586840F82240013298688242F5D310
:100570000C33EAE70022F8E71C6844F82200013255
:100580005C68A242F8D30833E4E70022F8E700BF32
:100590001C2D0008282D0008282D0008282D0008F3
:1005A00010B54FF480414FF0FF30114B114A9A6063
:1005B000D3F8882042F47002C3F888200E4A91666E
:1005C0000E4901F5005210660D4850660220C3F82E
:1005D000D000BFF34F8FBFF36F8F01244FF4403330
:1005E0000848C0F88041D36004600B6110BD00BFB3
:1005F00000ED00E000000008009000500080004482
:10060000FFF7FF2F00E100E0014B1868704700BFC3
:10061000041000200A4B1B6F03F00703013B042B5F
:1006200004D8DFE803F00B0407030900FEE7054BDD
:1006300018687047044BFBE7044BF9E70448704720
:10064000008000500410002008100020101000202E
:10065000002D310108B5FFF7DDFF054B1B6FC3F31C
:1006600003330133B0FBF3F0024B186008BD00BF49
:1006700000800050001000200048704700E1F505A0
:10068000014B1868704700BF08100020054B186028
:10069000054B1B6F03F00703032B01D1FFF7DABFF4
:1006A000704700BF081000200080005000487047CD
:1006B000002D31014FF0B4439868C0F304400C287A
:1006C00022D8DFE800F00921212121210717192173
:1006D0001B1D1F000F4870479B6803F04073B3F168
:1006E000807F13D0B3F1007F12D00B4A002B08BFDC
:1006F00010467047094870470948704709487047D5
:1007000009487047094870470020704708487047FB
:1007100008487047405DC60000093D000024F40011
:10072000C0EA210180BA8C010048E801005A620247
:1007300080841E0040420F00014B1868704700BFC4
:100740000C100020054B1860054B1B6F03F00703CE
:10075000052B01D1FFF77EBF704700BF10100020AE
:100760000080005010B501213A2000F07BFB0123EE
:1007700004220321002001F0DBFE002002F088F9B2
:100780000122314B3149C3F844234FF40022A3F531
:1007900050335A66D1F8FC202C4C12F080721EBFE8
:1007A000D1F8FC3023F08073C1F8FC302849D1F82F
:1007B000803023F0030343F00203C1F880302AB1F4
:1007C000D4F8FC3043F08073C4F8FC304FF4607010
:1007D00000F074FBD4F8F0301E4A43F00103C4F873
:1007E000F030D4F8FC3000F5D52043F08073C4F825
:1007F000FC30194B00F2FC401A60184B0222B0FB8F
:10080000F3F0174B01381861C3F8F0204FF48072F1
:10081000C3F804234FF06043124A0020C3F8B02FFE
:10082000114AC3F8802ED3F8002E42F48072C3F828
:10083000002EFF2283F82020D3F8002E22F48072AD
:10084000C3F8002E10BD00BF00D0035000ED00E043
:1008500000800050FF030040001000E0F8590D0038
:10086000000004E055CEACC50900010038B5124BBC
:100870000546D3F880300C4603F00303022B0BD05F
:10088000032B0DD0012B0FD1FFF7C4FE0D2305B1B3
:10089000286004B1236038BDFFF70CFF0723F6E79B
:1008A000FFF7B2FE0623F2E7044841F2A81102F076
:1008B00076F800231846EAE700800050202B000855
:1008C00038B51A4B0546D3F820010C4600F0070056
:1008D000062821D8DFE800F028040C1410181C00AA
:1008E000FFF792FE052305B1286004B1236038BDEF
:1008F000FFF7C6FE0323F6E7FFF7DCFE0723F2E768
:10090000FFF7D4FE0223EEE7FFF77EFE0623EAE7B9
:10091000FFF7B6FE0423E6E7054841F2252102F081
:100920003EF800231846DEE70123DCE70080005094
:10093000202B000838B5194B0546D3F828310C4652
:1009400003F00703013B052B20D8DFE803F0031376
:100950001B0F0B17FFF758FE052305B1286004B1E4
:10096000236038BDFFF750FE0623F6E7FFF7A2FE2F
:100970000723F2E7FFF784FE0323EEE7FFF780FE8D
:100980000423EAE7FFF792FE0223E6E7044841F278
:100990002D0102F004F800231846DEE70080005025
:1009A000202B0008F7B50027144B0197D3F880419E
:1009B000064604F00304022C0D4614D0032C0DD07F
:1009C000012C14D1394601A8FFF77AFF0F240EB18C
:1009D000019B336005B12C6003B0F0BDFFF76AFEE8
:1009E00007240190F3E7FFF761FE0190EFE741F282
:1009F0007A31034801F0D3FF3C46E8E7008000501D
:100A0000202B000838B50F4B0546D3F890320C4622
:100A100003F00303012B09D0022B0BD1FFF74AFE91
:100A2000072305B1286004B1236038BDFFF73EFEFF
:100A30000223F6E7044841F2191101F0B0FF002348
:100A40001846EEE700800050202B000837B5002341
:100A50000193194B0546D3F820320C4603F00703E7
:100A6000042B1FD8DFE803F025030F141900002121
:100A700001A8FFF75FFF11230DB1019A2A6004B1AD
:100A8000236003B030BDFFF715FE07230190F3E7A5
:100A900001F07FFF0A230190EEE7FFF74DFE0923E7
:100AA0000190E9E740F6EC71044801F078FF00237B
:100AB000E2E70123E0E700BF00800050202B0008A0
:100AC00038B5124B0546D3F8A0320C4603F00303A9
:100AD000022B06D0032B0CD0012B0ED118230C486F
:100AE00002E0FFF729FE092305B1286004B1236065
:100AF00038BD01F04EFF0A23F6E7064841F2BE4139
:100B000001F04DFF00231846EEE700BF00800050C3
:100B1000006CDC02202B000838B5104B0546D3F8DA
:100B200040310C4603F00303022B0BD0032B0DD0F6
:100B3000012B0FD101F02DFF0A2305B1286004B16C
:100B4000236038BDFFF7F8FD0923F6E701F024FF25
:100B50000B23F2E701230020EFE700BF00800050E5
:100B600037B500230193184B0546D3F860320C4685
:100B700003F00703013B032B1FD8DFE803F0020E4D
:100B80001914002101A8FFF79BFE0F230DB1019A54
:100B90002A6004B1236003B030BD002101A8FFF733
:100BA000BBFF1023F2E7FFF785FD07230190EDE778
:100BB000FFF77CFD02230190E8E741F29101034831
:100BC00001F0EDFE0023E1E700800050202B00083B
:100BD00073B500240F4B0194D3F87032064603F02E
:100BE0000303012B0D4607D0022B11D041F2EF0178
:100BF000094801F0D4FE04E0214601A8FFF78CFF6C
:100C000010240EB1019B336005B12C6002B070BDA1
:100C10001424F6E700800050202B000838B5164B4E
:100C20000546D3F800020C4600F00700042819D846
:100C3000DFE800F020030B0F130001F0AAFE0A23E7
:100C400005B1286004B1236038BDFFF775FD0923A5
:100C5000F6E701F0A1FE0B23F2E7FFF7FBFC0E2302
:100C6000800AEDE7054841F2384101F098FE002383
:100C70001846E5E70123E3E700800050202B000839
:100C800038B5164B0546D3F808020C4600F00700AD
:100C9000042819D8DFE800F020030B0F130001F03F
:100CA00078FE0A2305B1286004B1236038BDFFF740
:100CB00043FD0923F6E701F06FFE0B23F2E7FFF790
:100CC000C9FC0E23800AEDE7054841F2704101F0AE
:100CD00066FE00231846E5E70123E3E700800050A5
:100CE000202B000838B5104B0546D3F840320C468F
:100CF00003F00303022B0BD0032B0DD0012B0FD1DC
:100D000001F047FE0A2305B1286004B1236038BD15
:100D1000FFF712FD0923F6E701F03EFE0B23F2E791
:100D200001230020EFE700BF0080005038B5104BD2
:100D30000546D3F860310C4603F00303022B0BD0B9
:100D4000032B0DD0012B0FD101F023FE0A2305B197
:100D5000286004B1236038BDFFF7EEFC0923F6E7F5
:100D600001F01AFE0B23F2E701230020EFE700BF9A
:100D70000080005010B5B0F5207F2ED009D8B0F516
:100D8000007F24D003D868B1B0F5C07F0AD000241A
:100D90001BE0B0F5607FFAD1124BD3F88040C4F36A
:100DA000011412E00F4B1C6F230B13F00E0FC4F352
:100DB00003340AD0032C08D0072C06D00F2C04D003
:100DC00040F27521084801F0EAFD601C10BD054B9A
:100DD000D3F89040C4F30464F7E7024B1C6FC4F3EC
:100DE0008024F2E700800050202B000838B54FF433
:100DF0008032174B04469A6600200D46FFF7BAFF73
:100E000041F67131134BDA69D9635B6802F48032C1
:100E100023F440139DB960430F49884211D80F490C
:100E2000884211D80E4988428CBF4FF480100020B0
:100E30001843084B58600AB10022DA6338BD00201D
:100E4000F6E74FF44010F3E74FF40010F0E700BF6F
:100E50000090005000000350C068780480F0FA024F
:100E600040787D0170B5440905460E460ED14FF419
:100E700047710F4801F093FD05F01F05AEB104F571
:100E80008053012000FA05F51D6070BD012C08D0CB
:100E9000022C08D040F22631054801F080FD0024E4
:100EA000EAE7044CE8E7044CE6E704F50053E8E71A
:100EB000202B0008648000506880005030B585B059
:100EC000002180280446CDE9001100F2D3801F28BC
:100ED00005D8002840F0E180FFF7BCFB37E1A0F126
:100EE0002004602C00F2D98001A353F824F000BF45
:100EF000D90E000869110008D90E00086911000810
:100F00008711000887110008871100088711000861
:100F1000871100088711000891110008B51000081A
:100F2000BD110008FD100008B51000086911000887
:100F300069110008691100089B1000089B10000847
:100F40009B1000089B1000089B1000089B100008D5
:100F50009B100008BD110008691100086911000804
:100F600069110008E3110008C711000869110008A1
:100F70009B1000089B1000089B1000089B100008A5
:100F80009B1000089B1000089B1000089B10000895
:100F90009B1000089B1000089B1000089B10000885
:100FA0004111000841110008D90E0008D90E0008AF
:100FB000D90E000813110008B5100008B51000087C
:100FC000D11100082B110008D710000841110008AA
:100FD000411100089B1000089B1000089B1000089E
:100FE000E31100088711000887110008ED110008BF
:100FF0009B1000089B1000089B1000089B10000825
:101000009B1000089B1000089B1000089B10000814
:101010009B1000089B1000089B1000089B10000804
:101020009B1000089B1000089B1000089B100008F4
:101030009B1000089B1000089B1000089B100008E4
:101040009B1000089B1000089B1000089B100008D4
:101050009B1000089B1000089B1000089B100008C4
:101060009B1000089B1000089B1000089B100008B4
:101070004B110008B0F5B06F00F08A8030D8B0F5A1
:10108000207F71D00FD8B0F5C07F3FF425AFB0F509
:10109000007F60D0B0F5807F7FD040F27941564824
:1010A00001F07DFC54E0B0F5607F67D00DD8B0F55D
:1010B000407FF2D1FFF7CEFA04464FF42070FFF7DD
:1010C00059FEB4FBF0F0400841E0B0F5806F5AD013
:1010D000B0F5A06FE1D100216846FFF7B7FC37E01B
:1010E000B0F5206F74D019D8B0F5E06F6BD00AD886
:1010F000B0F5C06F62D0B0F5D06FCED10021684698
:10110000FFF78CFD24E0B0F5F06F6AD0B0F5106FFA
:10111000C3D100216846FFF7B3FD19E0B0F5306F89
:101120005BD007D8B0F5286FB7D100216846FFF72C
:101130004FFD0DE0B0F5386F40D0B0F5406FACD149
:1011400000216846FFF7F6FB02E0FFF763FA009024
:10115000009805B030BDFFF75DFA05462046FFF761
:1011600009FEB5FBF0F0F2E7FFF774FA04464FF41E
:101170002070FFF7FFFDB4FBF0F0E8E701A8FFF7F0
:1011800075FB019DEAE700216846FFF799FBDFE761
:1011900000216846FFF706FCDAE74FF0E0230291F2
:1011A0001B695B0705D5FFF755FA0290029B009378
:1011B000CEE703A902A8FFF7AFFCF7E700216846D6
:1011C000FFF7AAFCC4E700216846FFF78BFDBFE7E5
:1011D00000216846FFF7C4FCBAE76846FFF712FC37
:1011E000B6E700216846FFF7A1FDB1E70021684698
:1011F000FFF766FCACE700BF202B000808B54FF4F2
:10120000C070FFF75BFEBDE80840044988428CBF10
:10121000022101214FF4207000F002B880F0FA02A0
:1012200038B5B0F5207F6CD00ED8B0F5007F56D021
:1012300003D890B3B0F5C07F2FD040F2FF21BDE8B6
:101240003840384801F0ABBBB0F5607FF5D1364A85
:101250004C1ED2F8FC5015F080751EBFD2F8FC3041
:1012600023F08073C2F8FC30032C04D94FF438719A
:101270002C4801F094FB2D4BD3F8801021F0300165
:1012800041EA0411C3F8801035B1274AD2F8FC3086
:1012900043F08073C2F8FC3038BD102901F1FF34EF
:1012A00004D8234B23FA01F1CB0704D440F2B62132
:1012B0001C4801F074FB01F08CFB01F092FB1B4A0F
:1012C000136F23F4704343EA04331367FFF7C2F943
:1012D0000021FFF78BFDBDE83840FFF78FBF4C1EA4
:1012E0001F2C04D940F2F3210E4801F058FB0F4B9C
:1012F000D3F8901021F0F85141EA0461C3F890103E
:10130000CAE74C1E012C04D940F2F921054801F02E
:1013100046FB064B196F21F4806141EA842119676D
:10132000BAE700BF202B000800ED00E0008000506D
:10133000160101001FB503460020B3F5807F019020
:1013400000F0A2802BD85F2B24D8232B24D9243B58
:101350003B2B21D8DFE803F09393939393938B2057
:10136000A9472020202020202020202020A9202044
:10137000204FCB2020202020202020202020202093
:101380006D6D202020622020D0D5376D6D2020206B
:101390004F9393DE802B51D040F25A5163E0B3F566
:1013A000086F00F087802BD8B3F5B06F5FD00FD8EF
:1013B000B3F5607F00F09780EED3B3F5806F5ED019
:1013C000B3F5A06FE8D1002001A9FFF73FFB52E081
:1013D000B3F5E06F00F08B800AD8B3F5C06F64D02E
:1013E000B3F5D06FD8D1002001A9FFF717FC42E078
:1013F000B3F5F06FD0D1002001A9FFF797FC3AE0D8
:10140000B3F5306F00F082800DD8B3F5206F73D044
:10141000B3F5286F75D0B3F5106FBDD1002001A9C9
:10142000FFF72EFC27E0B3F5386F3ED0B3F5406FE1
:10143000B2D1002001A9FFF77DFA1CE0384B1B6FE9
:1014400003F00703013B042B0BD8DFE803F006038E
:1014500040480800052301930DE00223FBE7192310
:10146000F9E740F2AB412F4801F099FA03E0002080
:1014700001A9FFF797FA019805B05DF804FB002079
:1014800001A9FFF71DFAF6E74FF0E02302901B6970
:101490005B0705D5FFF7DEF80C230393039BDAE720
:1014A00003A902A8FFF738FBF8E7002001A9FFF71E
:1014B00033FBE0E71A4BD3F8003103F00303022BB0
:1014C00007D0032B09D0012B0BD1FFF7D9F8032349
:1014D000C1E7FFF731F90923BDE701F058FA082306
:1014E000B9E70123B7E701A9FFF7C0F9C3E7002077
:1014F00001A9FFF7F7FBBEE7002001A9FFF730FBCA
:10150000B9E7002001A9FFF763FBB4E701A9FFF7E2
:1015100079FAB0E7002001A9FFF7D2FAABE700BFE4
:1015200000800050202B00084FF48012034B5A66B5
:101530004FF48032024B9A62704700BF0090005017
:101540000050005A10B54FF00042204B02219A661D
:1015500045F60E021E4B1A631E4AD160012102F5A8
:101560008052D1601A699403FCD404681A4B9C42DF
:101570004FF400730CBF174A184AD361144A136919
:101580005900FCD4D368817923F0FF7323F4FF332F
:1015900023F4897323F00103234304790B4343EAC3
:1015A0000413447943EA4403D360094A13695B0096
:1015B000FCD429B1136903F44033B3F5403FF9D1AA
:1015C000C37913B1024B064A1A6310BD0090005054
:1015D00000400057005000570001360000600057DF
:1015E000F1A7FFFF38B504468020FFF7A3FE1928B6
:1015F00004D140F61731274801F0D1F9E379083BCF
:10160000172B04D940F61831224801F0C8F9237A83
:10161000043B0B2B04D940F619311E4801F0BFF9E9
:10162000637A203B5F2B04D940F61A31194801F048
:10163000B6F94FF40072184B184D9A6648F2A95348
:10164000C5F8B03063796A6921795B0043EA012308
:1016500022F4817213436B61AA6D114B1340627ABD
:101660001343E27943EA0243227A43EA0233AB6549
:101670002068FFF767F8637923B12B6A03F003034F
:10168000032BFAD1A3791BB1044B064AC3F8B0204F
:1016900038BD00BF202B00080090005000800C5087
:1016A000800FE0FFF1A7FFFFF8B5036804460F2B9A
:1016B00004D940F64631724801F071F963680F2B86
:1016C00004D940F649316E4801F069F9A3680F2B3F
:1016D00004D940F64C316A4801F061F9237B0F2BA5
:1016E00004D940F64F31664801F059F9637B0F2B5E
:1016F00004D940F65231624801F051F9A37B3F2BE7
:1017000004D940F655315E4801F049F9E37B3F2B9F
:1017100004D940F658315A4801F041F92369032BA6
:1017200004D940F65B31564801F039F96369032B5F
:1017300004D940F65E31524801F031F9E369032BD8
:1017400004D940F661314E4801F029F98020FFF7B5
:10175000F1FD032800F08A804FF48012494B4FF0CE
:10176000A0615A6645F60E03474AC2F88030474BDF
:1017700099624FF4803103F580539962936DD803D9
:10178000FCD4936D5900FCD4D4E900131B0543EA43
:101790000163E17B94F824600B43217B94F8225091
:1017A00043EA0143617B3A4F43EA0133A17BF600F0
:1017B00043EA811313619169D4E904031B0643EAE8
:1017C000806301F000410B43A17EE07E0B43217E4C
:1017D00043EA0143617E43EA01239361136AE269AC
:1017E00023F00F03002A0CBF0021082143EA020363
:1017F00043EA800343EA0103234994F823000B6280
:1018000094F820308A6A4FEA431330D194F821C00B
:101810003A4043EA0C131343334343F480338B625F
:101820001C4B8A6D33EA0202FBD14FF08073174FD5
:10183000BB620A69A66822F4700242EA06520A6193
:101840004FF00042BA610DB9134A936238B94FF4B0
:101850008032114B9A620C4A936D5B00FCD494F871
:1018600025301BB1084B0D4AC3F88020F8BD3A4023
:101870003343134343EA056343EA00438B62EEE7D5
:10188000202B0008009000500040005A0050005AE1
:10189000C7FFFEFE030001000060005AF1A7FFFF32
:1018A000014B93F900007047B010002010B5436859
:1018B0000446072B04D940F67C512A4801F06FF802
:1018C000A368032B04D940F67E51264801F067F83F
:1018D0002378032B04D94FF45861224801F05FF8B4
:1018E00094F90130002B04DA40F682511D4801F0D2
:1018F00056F84FF400011C4A637851664FF4D151F9
:10190000022002F5B832516218494F2B48604FF05F
:10191000010028BF4F2301F5805148601169C903B8
:10192000FCD4217843EA01235361D4E901131B015C
:1019300043EA0123617B0B43217B43EA410393602C
:10194000E37BA17B1B0143EA4113617C0B43217CB8
:1019500043EA41035360A37C13B16FF4D153536244
:1019600010BD00BF202B0008009000500010025056
:10197000014B1880704700BFAE100020014B18804B
:10198000704700BFAC100020024A936B0342FCD1A9
:10199000704700BF00400950034A0179D36E23F01D
:1019A00030030B43D36670470040005038B54FF00A
:1019B0000042244B244C5A664AF6CD33656C0146EE
:1019C00005F00105236430BB0120FFF7DDFF6368EC
:1019D000DB0708D4002415B11B4B1C4A1A6401F024
:1019E0001DF8204638BD1A4B58600846194B626BEB
:1019F000D20705D4984201D10724ECE70130F6E77D
:101A00009842E7D1F8E70132636B13F0080305D081
:101A10008A42F8D1F0E700220E49F5E78A42EBD07E
:101A200020210B4AD1620121A2F580525160064962
:101A3000084AC86A800603D49342DDD00133F8E730
:101A40009342DEE700900050004009503254FFFFFF
:101A50000060095040420F0038B54FF00042164B6D
:101A600001465A664AF6CD33144C154A656C236418
:101A700043780B205B0043F00103D363FFF784FF3F
:101A800063688A7823F4F87343EA02136360CA78C0
:101A90004B7943EA0223E3600A798B7943EA022314
:101AA00063610878FFF782FFEB0744BF054B2364AF
:101AB00000F0B4FF012038BD0090005000400950F4
:101AC000004000503254FFFF08B5114B984215D02A
:101AD000104B984214D003F58043984212D003F57E
:101AE0008043984210D003F5804398420ED00A48B4
:101AF00040F2753100F053FF002008BD5620FCE78E
:101B00005720FAE75820F8E74C20F6E74D20F4E795
:101B10000000015B00000A50702B000810B500F0B7
:101B200082FF042300F5805100F500520B61136120
:101B30000B6113610B6113610B611361202341F28F
:101B4000020103610023C360836041614FF4A0215F
:101B50008361836541620549C36103628362C36235
:101B600043630365D164036310BD00BFFF3F0D03F2
:101B700038B51D4B044698420D4613D01B4B984276
:101B800010D003F5804398420CD003F5804398426F
:101B900008D003F58043984204D040F26511144800
:101BA00000F0FDFE25B92046BDE8384000F03BBFFF
:101BB000012204F580535A6040F6FF71204605F07B
:101BC0000F0200F02CFFA263782100F028FF05F03F
:101BD00001036A0748BF43F00203A26C02F003024C
:101BE0009A42FAD138BD00BF0000015B00000A50E4
:101BF000702B00082DE9F04105460C46174622B926
:101C000040F223216B4800F0CAFE6B4B9D4213D07B
:101C10006A4B9D4210D003F580439D420CD003F5E2
:101C200080439D4208D003F580439D4204D040F29A
:101C30002621604800F0B3FE2CB92846FFF744FF88
:101C4000FFF73CF90446AB68D80743D5BC4204D241
:101C50004FF40C71574800F0A2FE6B6803F00108C6
:101C6000B4FBF7F35C1EFF2C04D94FF40E715148FE
:101C700000F095FEB8F1000F2AD02821284600F088
:101C8000CEFEAB6C99071DD1AB6CDA071CD4AE6CE1
:101C900016F002061AD140F24521464800F07FFEB8
:101CA000284600F0C0FE2B6923F07F4343EA04631B
:101CB0002B61B8F1000F7BD031462846BDE8F041DA
:101CC000FFF756BF0526EBE70926E9E70626E7E713
:101CD0004646E8E76B68012B04D04FF4167135488F
:101CE00000F05DFEAB6DDB07AB6848BF7F0003F023
:101CF000E003402B46D009D8BBB1202B38D040F2AE
:101D00009A21BDE8F0412B4800F049BE602B45D038
:101D1000802BF4D107EB4703A34204D94FF425717C
:101D2000244800F03CFE012308E0B7EB141F04D95F
:101D30004FF420711F4800F032FE10237B436401F2
:101D4000B4FBF3F41E4F203CB7EBC40F4FEAC406BC
:101D500004D240F2A521174800F021FE28463E405B
:101D6000012100F05CFE2E63BDE8F04100F057BE9B
:101D7000B7EBD40F04D940F285210E4800F00FFED6
:101D80000823DBE70626B4FBF6F3BB4204D240F29D
:101D90008A21084800F003FE3346CFE7B7EB940FE3
:101DA00004D940F28F21034800F0F9FD0423C5E770
:101DB000BDE8F081702B00080000015B00000A50B4
:101DC000F8FF7F00F8B51F46436804460D461646E7
:101DD0001BB140F6FF7100F022FE2046FFF79EFE89
:101DE000E9896B7B62690B43298A22F44C520B43CD
:101DF00022F00F0213436361A1682B7E2A7B21F03E
:101E0000804121F0E2011A430A4369690A43A26052
:101E1000AA681AB9A26842F00042A260E8690028E4
:101E200073D0A268017A42EA8152A260A268817AE4
:101E300042EA4142A2608288A16802F4C0420A4399
:101E4000A260A268417842EA8102A260A268417B56
:101E500042EAC102A260A268817B42EA0112A2604A
:101E6000A268817842EA8122A260C2798179520215
:101E700042EA8122E260027802F0FD01012908BFF6
:101E8000E168A2F1020204BF41F00401E160012A0D
:101E9000A74A00F2C680944200F0BB80A54A944253
:101EA00000F0B98002F58042944200F0B68002F55D
:101EB0008042944200F0B3809F498C420CBF0421C1
:101EC0004FF0FF3141F29432490101F1A04101F597
:101ED00070314FF0020C41F802C0427A04F5805193
:101EE0008A621AB1E26842F40062E260C27A62B1C8
:101EF000E26842F40042E2608D4A944240F0B480CD
:101F0000027B8E4902F00F024A6646B196F8202005
:101F100004F58050002A00F0CF8001220262002FD9
:101F200063D004F5805113B14FF400438B65804BAF
:101F300097F821209C42788C0ED07E4B9C420BD08F
:101F400003F580439C4207D003F580439C4203D0B5
:101F500003F580439C423ED1102A754B784E00F227
:101F6000C0809C4200F0B580724B9C4200F0B38070
:101F700003F580439C4200F0B08003F580439C420F
:101F800000F0AD8003F580439C420CBF04234FF06A
:101F9000FF330127B0F5006FF754654B694E00F22F
:101FA000D5809C4200F0BB80624B9C4200F0B9801F
:101FB00003F580439C4200F0B68003F580439C42C9
:101FC00000F0B38003F580439C420CBF04234FF024
:101FD000FF330127F754A36D024323F4F95323F091
:101FE0001E031A430123A2658B6505212046FFF7D6
:101FF000BFFDAA681AB120466968FFF7FBFD2046BD
:102000002978FFF7B5FDA36CDB4313F4405FFAD1E9
:10201000F8BD002156E7012154E7022152E70321D0
:1020200050E7944218D0434A944217D002F58042B8
:10203000944215D002F58042944213D03E498C421E
:102040000CBF04214FF0FF31490101F1A04142F2E0
:10205000943201F570313CE70021F5E70121F3E707
:102060000221F1E70321EFE7324A944211D002F551
:102070008042944213D0344A944216D02E4A94425D
:102080007FF443AF027B2D4902F00F02C1F8942088
:102090003BE7027B294902F00F020A6735E7027B22
:1020A000264902F00F02CA672FE7027B234902F09C
:1020B0000F02C1F8882028E796F82220E16996F8F7
:1020C000216021F0090132430A4342F00102C2615A
:1020D00025E700235DE701235BE7022359E703239C
:1020E00057E79C4213D0134B9C4212D003F5804318
:1020F0009C4210D003F580439C420ED003F58043F0
:102100009C420CBF04234FF0FF33022742E7002319
:10211000FBE70123F9E70223F7E70323F5E70023B1
:1021200057E7012355E7022353E7032351E700BF95
:102130000000015B00000A5000C00A5000900350EC
:10214000321100202D11002000800A509C4213D033
:102150000D4B9C4212D003F580439C4210D003F5F6
:1021600080439C420ED003F580439C420CBF042365
:102170004FF0FF3302272DE70023FBE70123F9E7A8
:102180000223F7E70323F5E700000A5070B5194B67
:10219000044698420D4612D0174B98420FD003F5D3
:1021A000804398420BD003F58043984207D003F553
:1021B0008043984203D07021104800F0F0FB1DB915
:1021C00072210E4800F0EBFB2B7B802B03D1762194
:1021D0000A4800F0E4FB6B7B032B03D97921074805
:1021E00000F0DDFB002329462046BDE870401A467A
:1021F000FFF7E8BD0000015B00000A50702B0008EB
:1022000070B59A4B044698420D4612D0984B9842AE
:102210000FD003F5804398420BD003F580439842DA
:1022200007D003F58043984203D0DF21914800F0A6
:10223000B6FB1DB9E1218F4800F0B1FB6A7BAB68AA
:102240007AB18D4A934203D9E3218A4800F0A7FB73
:102250002B69D3B1DB7BC3B1E621864800F09FFB3D
:1022600013E0864A934203D9E921824800F097FBA4
:102270002B6953B11A7F42B1A968814A5B7F9142B1
:1022800040F2A080042B00F2A08063682E6923B185
:1022900040F6FF71204600F0C2FB2046FFF73EFCEF
:1022A00022696B7BA97B22F087020B43134343F027
:1022B0008003236116B32A692369117823F0F80398
:1022C0000B43117F43EAC113117943EA4113517A59
:1022D00043EA0113D17B43EA81132361E168D2E928
:1022E000053021F0F04121F4702103430B43117BB1
:1022F000527B43EA812343EAC233E360A368EA7B6B
:1023000023F00303134343F00103A3602EB32A69B0
:10231000A168538803F4C0430B43A3605179A368B9
:1023200043EA8123A3609379D079616A1B0100029B
:1023300003F0700300F4E06021F4772121F4EE61F2
:1023400003430B43117A527F090301F4E041120465
:102350000B4302F470221343636263692A7B23F008
:102360000F0313436361B6B12B695A89A2615A7B8B
:102370003AB13E4A94422AD19A7B424902F00F0276
:102380004A66DA7B3AB1394A944247D11B7C3D4ACE
:1023900003F00F031366D5E901122046FFF72AFC6C
:1023A00005212046FFF7E4FB2821204600F037FBFB
:1023B0002B78A36300F033FBA36CDB4313F4405F83
:1023C000FAD170BD042B3FF660AFF02145E7284AF3
:1023D000944210D002F58042944212D02A4A94428C
:1023E00015D02A4A9442CCD19A7B264902F00F029A
:1023F000C1F89420C5E79A7B224902F00F020A67D0
:10240000BFE79A7B1F4902F00F02CA67B9E79A7BC0
:102410001C4902F00F02C1F88820B2E7144A944226
:1024200010D002F58042944212D0174A944215D03F
:10243000164A9442AFD11B7C124A03F00F03C2F834
:102440009030A8E71B7C0F4A03F00F03D366A2E786
:102450001B7C0C4A03F00F0393679CE71B7C094A23
:1024600003F00F03C2F8843095E700BF0000015B62
:1024700000000A50702B0008002D31018096980052
:102480003F4B4C000090035000800A5000C00A509F
:1024900038B50D460446B0B1012817D0022817D030
:1024A000032803D1FF23EB40DB0704D440F22D4186
:1024B000094800F074FA302001214443074B01FA27
:1024C00005F51D5138BD40F6FF73ECE73F23EAE701
:1024D00040F2FF33E7E700BFC32B000840D00350B2
:1024E00038B50D460446B0B1012817D0022817D0E0
:1024F000032803D1FF23EB40DB0704D440F2FE3175
:10250000094800F04CFA302001214443074B01FAFE
:1025100005F51D5138BD40F6FF73ECE73F23EAE7B0
:1025200040F2FF33E7E700BFC32B000840E0035051
:102530002DE9F0410D46174698460446002835D04F
:10254000012836D0022836D0032803D1FF23EB40E0
:10255000DB0704D44FF4B0711D4800F020FA37B106
:1025600029462046B8F1000F28D0FFF791FF0F2130
:10257000072D04EB440688BFA5F108034FEA0616B1
:10258000144895BFAB009B0004360C3607FA03F2E3
:102590009940304400F06BFABFB929462046B8F1A3
:1025A000000F0ED0BDE8F041FFF772BF40F6FF7399
:1025B000CDE73F23CBE740F2FF33C8E7FFF790FFBB
:1025C000D5E7BDE8F041FFF78BBFBDE8F08100BF64
:1025D000142C000830C0035007B5084B18689A88BF
:1025E0009B7900906846ADF804208DF80630FFF71F
:1025F00033FA002003B05DF804FB00BF652C00082F
:1026000013B50024064A6846536F43F0010353672D
:1026100000948DF80440FFF7BFF9204602B010BDCA
:102620000040005030B58BB06C46174D0FCD0FC435
:102630000FCD0FC495E8030084E80300134BD3F8D3
:102640004C21120318D4D3F85041E4B28DF819404C
:10265000FFF726F9204480F308008DF818000C4895
:10266000FEF714F86846FFF71FF84FF4FA70FFF70B
:1026700085F900200BB030BD064B1C884FF6FF7368
:102680009C4208BF5D24E1E76C2C00080080E00F4D
:10269000C01753020001E00F30B587B0074D01AC01
:1026A0000FCD0FC42B6801A82360FFF7FFF864204B
:1026B000FFF75EF9002007B030BD00BF942C000882
:1026C00010B56FF0040250210A480B4C12F0800F35
:1026D000D3B21BBF03F00F03043BA3181B1802F176
:1026E00001020CBF83F8001319765A2AEED100209C
:1026F00010BD00BF00ED00E000E100E01FB5144A8E
:1027000001AB07CA83E80700124A1846116B019112
:1027100092F834108DF80B1092F8351092F836209C
:102720008DF80C108DF80D20FEF75CFF00F05EF9BF
:10273000094A136F23F0070343F00503136700F002
:102740005CF90198FDF7FEFF002005B05DF804FB81
:10275000A82C0008141000200080005013B5FDF7CD
:102760008FFF124B98421FD008D8114B98420AD0C5
:10277000104B984216D0012002B010BD0E4B98426B
:10278000F9D10E4B00E00E4B002400930D4B684630
:102790000193FEF7D7FE68468DF80640FEF7D2FE9D
:1027A0002046E9E7084BEFE7084BEDE7C017530277
:1027B00080D5430200F04902005A62020001530032
:1027C00000014F000000010100215300000136000C
:1027D00010B50446FDF73EFF4FF47A729042B0FB0D
:1027E000F2F105D23621BDE810400C4800F0D7B810
:1027F0000B4BB3FBF1F30B49884201D93C21F2E7C3
:1028000002FB04F0B0FBF3F0022806D9BDE810404B
:102810000323B0FBF3F0FDF7CBBC10BDB42C0008D4
:1028200040420F00E7CD9A3B08B5074B044613B171
:10283000002100E000BF054B1868836A03B1984788
:10284000204600F029F800BF00000000102D00080D
:1028500070B50D4D00260D4C641BA410A64209D185
:102860000B4D00260B4C00F035F9641BA410A6425A
:1028700005D170BD55F8043B01369847EEE755F891
:10288000043B01369847F2E7B4100020B410002052
:10289000B4100020B8100020FEE700BF08B50121E9
:1028A0003A20FEF7DFFABDE8084001215720FEF785
:1028B000D9BA10B50123042219460220FFF738FEC9
:1028C000BDE810400023012219460220FFF730BE68
:1028D00008B5FFF7E3FFFFF7ECFFBDE80840FDF7A1
:1028E000C9BC08B500F0D5F8FFF7F2FF00F0DEF83C
:1028F000FDF720FDFAE700F028B808B5FFF7E0FE85
:1029000000F037F8FFF768FEFFF7C6FEFFF78AFE14
:10291000FFF724FFFDF71AFDFFF7F0FEFFF770FE4B
:10292000BDE8084000F01AB808B5FDF71BFFBDE888
:10293000084000F022B800F006B8704770477047B2
:102940007047704770470F20704708B50023042276
:1029500018460B21FFF7ECFD002008BD08B501214A
:102960003A20FEF77FFAFFF7C6FFBDE80840FDF703
:1029700053BD01213A20FEF775BA08B5082000F0D2
:102980000FF8BDE80840082000F016B8FEE7002068
:1029900070474FF4004070474FF47A707047FEE77D
:1029A0004FF060420123D2F8001E03FA00F0084302
:1029B000C2F8000E002070474FF060410122D1F8AC
:1029C000003E02FA00F023EA0003C1F8003E0020B6
:1029D000704708B5FDF750FEBDE808400021FEF73E
:1029E00005BA02214FF42070FEF71ABC08B5FFF7B4
:1029F000F0FFBDE80840FFF7F4BF08B5FDF72AFE79
:102A00000021FEF7F3F9BDE80840FEF7F7BBEFF34E
:102A1000108072B6704700B962B670477047436D58
:102A20000B42FCD1704708B54368DA0714D58368B8
:102A3000DB0702D50369D90707D50A235021836331
:102A4000FFF7EDFF836C9A07FCD1012200F50053DC
:102A50005A6043689B07FCD408BD836C5A06FCD5BA
:102A60004164836C1B06FCD5C06B80B2704770B5A7
:102A7000054614460E46FFF7CAFF296881EA04029C
:102A800002EA06044C402C60BDE87040FFF7C3BF6B
:102A9000704708B5FFF731FFFFF746FFFFF74BFF21
:102AA000FFF74BFFBDE80840FFF748BF08B5FFF749
:102AB00046FFFFF745FFFFF744FFBDE80840FFF77B
:102AC00041BF02440346934200D1704703F8011B03
:102AD000F9E70000F8B500BFF8BC08BC9E46704797
:102AE000F8B500BFF8BC08BC9E4670470500000062
:102AF0000000000080969800020100000000000025
:102B000000000000010000000000000000000000C4
:102B100001000000000000000000000001040000AF
:102B2000433A2F55736572732F75646179616B75C4
:102B30006D61722F53696D706C6963697479537438
:102B40007564696F2F53444B732F6765636B6F5FB9
:102B500073646B2F706C6174666F726D2F656D6C32
:102B600069622F7372632F656D5F636D752E6300ED
:102B7000433A2F55736572732F75646179616B7574
:102B80006D61722F53696D706C69636974795374E8
:102B90007564696F2F53444B732F6765636B6F5F69
:102BA00073646B2F706C6174666F726D2F656D6CE2
:102BB00069622F7372632F656D5F657573617274DF
:102BC0002E6300633A5C75736572735C756461793A
:102BD000616B756D61725C73696D706C696369744A
:102BE0007973747564696F5C73646B735C67656338
:102BF0006B6F5F73646B5C706C6174666F726D5C3D
:102C0000656D6C69625C696E635C656D5F67706958
:102C10006F2E6800433A2F55736572732F75646188
:102C200079616B756D61722F53696D706C69636941
:102C3000747953747564696F2F53444B732F6765B0
:102C4000636B6F5F73646B2F706C6174666F726D12
:102C50002F656D6C69622F7372632F656D5F67708E
:102C6000696F2E6300010310010109030B000000CE
:102C70000C00000003000000000020200000000005
:102C8000020000003C3C3C0000000000000000008E
:102C90000000000001260000040000000000000009
:102CA000000100000000000000E1F5050000011136
:102CB00006570000433A2F55736572732F75646190
:102CC00079616B756D61722F53696D706C696369A1
:102CD000747953747564696F2F53444B732F676510
:102CE000636B6F5F73646B2F706C6174666F726D72
:102CF0002F736572766963652F7564656C61792FD2
:102D00007372632F736C5F7564656C61792E6300F9
:042D10004C10002043
:082D1400E4D4FF7F0100000080
:0C2D1C00282D0008001000202F000000EF
:102D2800C0EA2101C0EA2101C01753020080000057
:102D380060BBCF0560BBCF0517077300E028DD0532
:102D480016076F0060BBCF051707730060BBCF0580
:102D58001406640060BBCF051707730040C7C005A1
:102D68001406630060BBCF05140664000000000071
:102D7800000000000000000000000000000000004B
:102D8800000000000000000000000000000000003B
:102D9800000000000000000000000000000000002B
:102DA800000000000000000000000000000000001B
:102DB800000000000000000000000000000000000B
:102DC800000000000000000000000000FFFFFFFFFF
:0C2DD80028000000DD010008B90100081F
:0400000508000541A9
:00000001FF
